:040000008BEF03F08F
:08000800046ED8CF05F0E0CF33
:1000100006F00001E9CF0CF0EACF07F0E1CF08F0DD
:10002000E2CF09F0D9CF0AF0DACF0BF0F3CF12F01C
:10003000F4CF13F0FACF14F0F5CF15F0F6CF16F099
:10004000F7CF17F000C00EF001C00FF002C010F0A3
:1000500003C011F0F2AA30EF00F0F2B45DEF00F04F
:10006000F2A836EF00F0F2B260EF00F00EC000F040
:100070000FC001F010C002F011C003F00CC0E9FF86
:1000800007C0EAFF078E08C0E1FF09C0E2FF0AC00F
:10009000D9FF0BC0DAFF12C0F3FF13C0F4FF14C086
:1000A000FAFF15C0F5FF16C0F6FF17C0F7FF0450A2
:1000B00006C0E0FF05C0D8FF1000F29436EF00F054
:1000C000F29236EF00F0800E956E8C80BAEF03F05E
:1000D0004F6A506A010E516EDA6AD96A546A470E45
:1000E000536EEA6A4B0EE96E54C0E2FF53C0E1FF63
:1000F00051C052F0D890E550EE02F3504F22F45028
:100100005022522EF7D74FC0DEFF50C04FF0506A3A
:10011000D8B0502A532AD8B4542A512A515005082D
:10012000E0E1C6EF00F0016A026A006A036A4D501E
:1001300002E14C5018E0100E4E6ED8904A364B3605
:10014000003603364D50035C02E14C50005C07E37F
:100150004C50005ED8A003064D50035ED880013697
:1001600002364E2EEAD7E4EF00F01EC04AF01DC062
:1001700049F01CC048F01BC047F0410E4E6EC60E41
:100180004D6E4E0E4C6E6D0E4B6EA2D7390E002486
:100190001B6E300E01201C6E000E02201D6E000E24
:1001A00003201E6E1DC000F01EC001F0026A036A2B
:1001B0001EC049F01DC048F01EC04BF01DC04AF0E3
:1001C0007F0E4D6E4C68AFD700C001F003C002F047
:1001D000EBEF00F0CAD70150030B466E465007E024
:1001E000010A17E0030A27E0010A37E048D0036A52
:1001F00045C002F0D8900236033602504324E96E1F
:1002000044500320EA6E7C0EEC6EED521B0EEF6E36
:1002100047D0036A45C002F0D89002360336025038
:100220004324E96E44500320EA6E7C0EEC6EED52DE
:100230001E0EEF6E35D0036A45C002F0D89002362C
:10024000033602504324E96E44500320EA6E7C0ECC
:10025000EC6EED521C0EEF6E23D0036A45C002F027
:10026000D8900236033602504324E96E44500320EE
:10027000EA6E7C0EEC6EED521D0EEF6E11D0036A2D
:1002800045C002F0D8900236033602504324E96E8E
:1002900044500320EA6E7C0EEC6EED521D0EEF6EA4
:1002A000452A45C001F0C7EF03F04B50070B006E25
:1002B0004B30016E013201321F0E011601504D24E8
:1002C000E96E000E4E20EA6E016A012A002A01D072
:1002D0000136002EFDD74C5203E00150EF1203D03F
:1002E000011E0150EF161200EA6A4C0EE96EEF5043
:1002F0000DE0060E016E006A002EFED7012EFBD720
:100300007B0E006E002EFED7EF2EF3D7120049C0F1
:100310004BF0010E4C6E0F0E4E6E890E4D6EC5DF0A
:1003200049C04BF04C6A0F0E4E6E920E4D6EBDDF03
:10033000020E4B6E960E4C6ED7DF4B2EFBD749C08C
:100340004BF04C6A0F0E4E6E890E4D6EAEDF49C0FB
:100350004BF04C6A0F0E4E6E920E4D6EA6DF020EE3
:100360004B6E960E4C6EC0DF4B2EFBD7CEEF01F0DE
:10037000466A4550465C14E2036A46C002F0D890D3
:100380000236033602504324E96E44500320EA6EDD
:10039000ECCF4AF0ED52EFCF49F0B9D7462AE9D772
:1003A000CFEF03F0456A4550010832E3800E956EA9
:1003B0008C82956E8C84640E4C6E96DF800E956EEA
:1003C0008C94956E8C92640E4C6E8EDF800E956EC2
:1003D0008C84956E8C82320E4C6E86DF800E956E0C
:1003E0008C94956E8C92320E4C6E7EDF800E956EE4
:1003F0008C84956E8C821E0E4C6E76DF800E956E10
:100400008C94956E8C921E0E4C6E6EDF452ACBD767
:10041000800E956E8C84956E8C82CBEF02F0456ACF
:100420004550010816E3800E956E8C82956E8C8483
:10043000956E8C80C80E4C6E57DF800E956E8C9436
:10044000956E8C92956E8C90C80E4C6E4DDF452A41
:10045000E7D7CBEF02F0476A47500108D8A077D022
:1004600045C04BF0010E4C6E0F0E4E6E890E4D6E58
:100470001CDF45C04BF04C6A0F0E4E6E920E4D6E57
:1004800014DF640E4C6E30DF45C04BF04C6A0F0E2B
:100490004E6E890E4D6E09DF45C04BF04C6A0F0E53
:1004A0004E6E920E4D6E01DF640E4C6E1DDF45C028
:1004B0004BF0010E4C6E0F0E4E6E890E4D6EF5DE3A
:1004C00045C04BF04C6A0F0E4E6E920E4D6EEDDE37
:1004D000320E4C6E09DF45C04BF04C6A0F0E4E6E6B
:1004E000890E4D6EE2DE45C04BF04C6A0F0E4E6E2B
:1004F000920E4D6EDADE320E4C6EF6DE45C04BF0DB
:10050000010E4C6E0F0E4E6E890E4D6ECEDE45C046
:100510004BF04C6A0F0E4E6E920E4D6EC6DE1E0EE6
:100520004C6EE2DE45C04BF04C6A0F0E4E6E890EEB
:100530004D6EBBDE45C04BF04C6A0F0E4E6E920EF8
:100540004D6EB3DE1E0E4C6ECFDE472A85D745C0FA
:100550004BF0010E4C6E0F0E4E6E890E4D6EA5DEE9
:1005600045C04BF04C6A0F0E4E6E920E4D6E9DDEE6
:10057000CBEF02F0435204E1445202E113D70BD017
:10058000432C04D0445202E14AD705D044C046F07F
:1005900043C045F060D7D5EF03F0442C15D0D89078
:1005A0001F34036A200FE96E000E0320EA6E46C076
:1005B000ECFFED5245C0EFFF1F2A47501F5C03E1DF
:1005C000010E016E1AD017D04450020814E1D890E1
:1005D0002834036A290FE96E000E0320EA6E46C034
:1005E000ECFFED5245C0EFFF282A4750285C03E19D
:1005F000010E016E02D0000E016E77EF03F080A0B5
:100600000CD033C04CF070DE80A006D07C0E326E71
:100610001B0E316E010E346E61D080A20CD033C03F
:100620004CF062DE80A206D07C0E326E1E0E316E61
:10063000010E346E53D080A40CD033C04CF054DE85
:1006400080A406D07C0E326E1C0E316E010E346E0C
:1006500045D080A60CD033C04CF046DE80A606D034
:100660007C0E326E1D0E316E010E346E37D080A8B6
:100670000CD033C04CF038DE80A806D07C0E326E31
:100680001B0E316E020E346E29D080AA0CD033C0FE
:100690004CF02ADE80AA06D07C0E326E1E0E316E21
:1006A000020E346E1BD080AC0CD033C04CF01CDE7C
:1006B00080AC06D07C0E326E1C0E316E020E346E93
:1006C0000DD080AE0BD033C04CF00EDE80AE06D025
:1006D0007C0E326E1D0E316E020E346E34C044F04C
:1006E00032C046F031C045F043C047F056D7015202
:1006F00009E0342C04D0010E016E06D003D0020EA6
:10070000016E02D0000E016EE5EF03F0800E956ED3
:100710008C90F3EF03F0F86AD09E078E1F6A286A68
:100720000A0E336E346AC150C00B0F09C16E070E3A
:10073000B46E196A1A6A860ED56EF28AF288C00EF5
:10074000F212356A3F6A3E6A409040924094416A94
:10075000926880CF42F040B004D0409083BE408089
:10076000FAD740903F6A3E6A356A3E523DE13F52B9
:100770003BE1A9D43550030813E33E5211E13F5247
:100780000FE1446A360E436E35C045F023D501C0F3
:1007900035F0446A360E436E35C045F0E9D507D0D2
:1007A0003FC044F03EC043F0E5D63F683E6840920B
:1007B0004094416A40B213D040B411D09268805046
:1007C000425C05E035C043F01AD701C041F0412C2E
:1007D00001D040824150020801E14084EBD7640E11
:0C07E0004C6E82DD93D7C1D7B6D7030062
:020000040030CA
:0E00000000C21E1E008781000FC00FE00F40DF
:00000001FF
;PIC18F4520
;CRC=80A9  CREATED="14-jun-17 18:04"
